:020000040000FA
:100000006802001069010000710100007301000026
:100010007501000077010000790100000000000078
:100020000000000000000000000000007B01000054
:100030007D010000000000007F0100008101000040
:1000400083010000830100008301000083010000A0
:100050008301000083010000830100008301000090
:100060008301000083010000830100008301000080
:100070008301000083010000830100008301000070
:100080008301000083010000830100008301000060
:100090008301000083010000830100008301000050
:1000A0008301000083010000830100008301000040
:1000B0008301000083010000830100008301000030
:1000C00083010000830100008301000000F002F8BA
:1000D00000F03AF80AA090E8000C82448344AAF1A8
:1000E0000107DA4501D100F02FF8AFF2090EBAE8A6
:1000F0000F0013F0010F18BFFB1A43F0010318475C
:100100007001000090010000103A24BF78C878C147
:10011000FAD8520724BF30C830C144BF04680C600D
:10012000704700000023002400250026103A28BF55
:1001300078C1FBD8520728BF30C148BF0B60704759
:100140001FB51FBD10B510BD00F05BF81146FFF7DD
:10015000F7FF00F027F800F079F803B4FFF7F2FF9B
:1001600003BC00F07DF800000948804709480047BB
:10017000FEE7FEE7FEE7FEE7FEE7FEE7FEE7FEE757
:10018000FEE7FEE704480549034A054B70470000B7
:1001900039040000CD000000680000106802001063
:1001A00068000010002401225107104600F048FAB0
:1001B0004FF00051012000F061FA00BF00E0641C24
:1001C0000D488442FBDB15E04FF00051012000F0A8
:1001D0004BFA002400E0641C07488442FBDB4FF02C
:1001E0000051012000F04AFA002400E0641C02489B
:1001F0008442FBDBE8E70000809698007047704778
:100200007047754600F028F8AE460500694653462B
:1002100020F00700854618B020B5FFF7B3FFBDE812
:1002200020404FF000064FF000074FF000084FF05D
:10023000000B21F00701AC46ACE8C009ACE8C009EE
:10024000ACE8C009ACE8C0098D4670470446AFF37E
:1002500000802046FFF781FF00487047040000102F
:1002600001491820ABBEFEE72600020070470000DF
:10027000C809000000000010040000000801000090
:10028000CC090000040000106402000024010000FA
:10029000000000000000000000000000000000005E
:1002A000000000000000000000000000000000004E
:1002B000000000000000000000000000000000003E
:1002C000000000000000000000000000000000002E
:1002D000000000000000000000000000000000001E
:1002E000000000000000000000000000000000000E
:1002F000000000000000000000000000FFFFFFFF02
:1003000094480068C0F30160032864D192480068F3
:1003100010F0030006D0012823D002283FD0032884
:1003200058D100E000BF8B480068C0F30E0000F118
:1003300001004FEA4000894900FB01F08849D1F8EB
:100340008810C1F3074101F10101B0FBF1F18548CB
:100350000068C0B200F10100B1FBF0F08249086012
:1003600038E07C480068C0F30E0000F101004FEA5D
:1003700040007E4900FB01F07949D1F88810C1F3B3
:10038000074101F10101B0FBF1F176480068C0B20C
:1003900000F10100B1FBF0F0734908601AE06D480C
:1003A0000068C0F30E0000F101004FEA00416C4804
:1003B000D0F88800C0F3074000F10100B1FBF0F174
:1003C00068480068C0B200F10100B1FBF0F0664976
:1003D000086000BF2FE06048006810F0030006D0FE
:1003E000012810D0022819D0032823D100E000BF33
:1003F0005C480068C0B200F101005849B1FBF0F060
:100400005949086016E057480068C0B200F1010081
:100410005649B1FBF0F0544908600BE051480068C0
:10042000C0B200F101004FF40041B1FBF0F04E49C1
:10043000086000BF00BF704720204D490860484851
:10044000D0F8A00110F0200F05D000BF4848006888
:1004500010F0400FFAD00320424908604FF000002E
:100460003F49C1F8A801434908604FF001003A49EB
:1004700008604148414908604FF0AA0040490860BF
:100480004FF0550008604FF001003E4908604FF002
:10049000AA003B4908604FF055003149C1F88C0073
:1004A00000BF2C48006810F0806FFAD00320354957
:1004B00008604FF0AA002A49C1F88C004FF055009F
:1004C0002F49086000BF2348006810F0407FFAD031
:1004D00023202D4908604FF0AA002149C1F8AC0043
:1004E0004FF05500294908604FF001002849086085
:1004F0004FF0AA00254908604FF055001849C1F88F
:10050000AC0000BF2348006810F4806FFAD00320CD
:100510001F4908604FF0AA001149C1F8AC004FF024
:1005200055001A49086000BF1A48006810F4407F5F
:10053000FAD01948194908604FF000000849C1F87D
:10054000C80143F23A0008604FF000001449086007
:100550007047000088C00F400CC10F4000093D00EB
:1005600000C00F4004C10F4000000010001BB70086
:10057000A0C10F40ACC10F406300050084C00F4014
:100580008CC00F4080C00F40A4C00F40ACC00F40D3
:10059000A0C00F40A8C00F40DE872804C4C00F4091
:1005A00008ED00E001460020052912D2DFE801F045
:1005B0000305080B0E00F8480CE0F748203009E06E
:1005C000F548403006E0F448603003E0F2488030FF
:1005D00000E000BF00BF704701460020052912D28D
:1005E000DFE801F00305080B0E00EB480CE0EA48D9
:1005F000203009E0E848403006E0E748603003E09A
:10060000E548803000E000BF00BF70470146002091
:10061000052912D2DFE801F00305080B0E00DE48C1
:100620000CE0DD48203009E0DB48403006E0DA48E5
:10063000603003E0D848803000E000BF00BF704762
:100640002DE9F04107460D4616463846FFF7AAFF4A
:1006500004463CB11EB120682843206002E02068B7
:10066000A8432060BDE8F08170B506460C463046D0
:10067000FFF798FF054605B1AC6170BD70B5064641
:100680000C463046FFF78EFF054605B1EC6170BDA4
:1006900070B505462846FFF785FF04460CB1606932
:1006A00070BD0020FCE718B912B9BC4B196014E00A
:1006B000022803D112B9BA4B19600EE020B9012A01
:1006C00002D1B84B196008E0022804D1012A02D1F6
:1006D000B54B196001E000BFFEE7704703463BB928
:1006E00032B9B248006820FA01F000F0010070470A
:1006F000022B07D132B9AE48006820FA01F000F0B1
:100700000100F4E743B9012A06D1AA48006820FA9B
:1007100001F000F00100EAE7022B08D1012A06D11E
:10072000A548006820FA01F000F00100DFE700BFF3
:10073000FEE710B9A14A116006E0022802D1A04AE2
:10074000116001E000BFFEE7704770B504460D463A
:100750001646324629462046FFF772FF70BD70B537
:1007600004460D4629462046FFF77EFF70BD70B552
:1007700004460D4629462046FFF780FF70BD10B5A0
:1007800004462046FFF784FF10BD70B504460D46B1
:100790001646324629462046FFF785FF70BD70B5E4
:1007A00004460D461646324629462046FFF796FF78
:1007B00070BD10B503460C4621461846FFF7B9FF39
:1007C00010BD2DE9F04107460D4616463846FFF7A5
:1007D000E9FE04463CB11EB120692843206102E0D5
:1007E0002069A8432061BDE8F0812DE9F0418046F1
:1007F0000E4615461F464046FFF7EEFE04468CB1F6
:1008000047B11EB16088284360800BE020882843F0
:10081000208007E01EB16088A843608002E0208845
:10082000A8432080BDE8F0812DE9F04180460E46C6
:1008300015461F464046FFF7CFFE04468CB147B130
:100840001EB1608A284360820BE0208A2843208200
:1008500007E01EB1608AA843608202E0208AA843B4
:100860002082BDE8F0812DE9F04107460E4614468E
:100870003846FFF7B1FE05461DB10EB16C8300E0AE
:100880002C83BDE8F0812DE9F04107460E46144661
:100890003846FFF7A1FE05461DB10EB1EC8300E01E
:1008A000AC83BDE8F08170B506460D463046FFF7D3
:1008B00093FE044624B10DB1E08A70BDA08AFCE726
:1008C0000020FAE72DE9F04180460C4616461F4607
:1008D0004046FFF79BFE05465DB12FB1032C08DCB7
:1008E000285D3043285504E0032C02DC285DB0432A
:1008F0002855BDE8F0812DE9F04180460C461646AA
:100900001F464046FFF782FE05469DB14FB1032CBE
:1009100010DC05F11000005D304305F110010855B1
:1009200008E0032C06DC05F11000005DB04305F182
:1009300010010855BDE8F0812DE9F04107460C464D
:1009400015463846FFF762FE064626B1032C02DC48
:1009500006F118000555BDE8F0812DE9F041074684
:100960000C4615463846FFF751FE064626B1032CC5
:1009700002DC06F11C000555BDE8F08170B50646A5
:100980000C463046FFF742FE0546DDB1032C19DC6C
:1009900005F11400005D70BD00C009209080024088
:1009A000B080024094800240B480024084800240C3
:1009B000A480024088800240A88002408C800240CF
:0C09C000AC8002400020E6E700E1F505F5
:04000005000001698D
:00000001FF
